{
  "contractName": "CrowdBank",
  "abi": [
    {
      "constant": true,
      "inputs": [
        {
          "name": "",
          "type": "address"
        },
        {
          "name": "",
          "type": "uint256"
        }
      ],
      "name": "loanMap",
      "outputs": [
        {
          "name": "",
          "type": "uint256"
        }
      ],
      "payable": false,
      "stateMutability": "view",
      "type": "function",
      "signature": "0x1594a313"
    },
    {
      "constant": true,
      "inputs": [
        {
          "name": "",
          "type": "uint256"
        }
      ],
      "name": "loanList",
      "outputs": [
        {
          "name": "borrower",
          "type": "address"
        },
        {
          "name": "state",
          "type": "uint8"
        },
        {
          "name": "dueDate",
          "type": "uint256"
        },
        {
          "name": "amount",
          "type": "uint256"
        },
        {
          "name": "proposalCount",
          "type": "uint256"
        },
        {
          "name": "collected",
          "type": "uint256"
        },
        {
          "name": "startDate",
          "type": "uint256"
        },
        {
          "name": "mortgage",
          "type": "bytes32"
        }
      ],
      "payable": false,
      "stateMutability": "view",
      "type": "function",
      "signature": "0x7621710c"
    },
    {
      "constant": true,
      "inputs": [],
      "name": "owner",
      "outputs": [
        {
          "name": "",
          "type": "address"
        }
      ],
      "payable": false,
      "stateMutability": "view",
      "type": "function",
      "signature": "0x8da5cb5b"
    },
    {
      "constant": true,
      "inputs": [
        {
          "name": "",
          "type": "uint256"
        }
      ],
      "name": "proposalList",
      "outputs": [
        {
          "name": "lender",
          "type": "address"
        },
        {
          "name": "loanId",
          "type": "uint256"
        },
        {
          "name": "state",
          "type": "uint8"
        },
        {
          "name": "rate",
          "type": "uint256"
        },
        {
          "name": "amount",
          "type": "uint256"
        }
      ],
      "payable": false,
      "stateMutability": "view",
      "type": "function",
      "signature": "0xc6311e3f"
    },
    {
      "constant": true,
      "inputs": [
        {
          "name": "",
          "type": "address"
        },
        {
          "name": "",
          "type": "uint256"
        }
      ],
      "name": "lendMap",
      "outputs": [
        {
          "name": "",
          "type": "uint256"
        }
      ],
      "payable": false,
      "stateMutability": "view",
      "type": "function",
      "signature": "0xfaa72d63"
    },
    {
      "inputs": [],
      "payable": false,
      "stateMutability": "nonpayable",
      "type": "constructor",
      "signature": "constructor"
    },
    {
      "constant": true,
      "inputs": [
        {
          "name": "borrower",
          "type": "address"
        }
      ],
      "name": "hasActiveLoan",
      "outputs": [
        {
          "name": "",
          "type": "bool"
        }
      ],
      "payable": false,
      "stateMutability": "view",
      "type": "function",
      "signature": "0x21d4f8db"
    },
    {
      "constant": false,
      "inputs": [
        {
          "name": "amount",
          "type": "uint256"
        },
        {
          "name": "dueDate",
          "type": "uint256"
        },
        {
          "name": "mortgage",
          "type": "bytes32"
        }
      ],
      "name": "newLoan",
      "outputs": [],
      "payable": false,
      "stateMutability": "nonpayable",
      "type": "function",
      "signature": "0xfccd238c"
    },
    {
      "constant": false,
      "inputs": [
        {
          "name": "loanId",
          "type": "uint256"
        },
        {
          "name": "rate",
          "type": "uint256"
        }
      ],
      "name": "newProposal",
      "outputs": [],
      "payable": true,
      "stateMutability": "payable",
      "type": "function",
      "signature": "0x1801f00f"
    },
    {
      "constant": true,
      "inputs": [
        {
          "name": "borrower",
          "type": "address"
        }
      ],
      "name": "getActiveLoanId",
      "outputs": [
        {
          "name": "",
          "type": "uint256"
        }
      ],
      "payable": false,
      "stateMutability": "view",
      "type": "function",
      "signature": "0x98325656"
    },
    {
      "constant": false,
      "inputs": [
        {
          "name": "id",
          "type": "uint256"
        }
      ],
      "name": "revokeMyProposal",
      "outputs": [],
      "payable": false,
      "stateMutability": "nonpayable",
      "type": "function",
      "signature": "0x9ce9cc56"
    },
    {
      "constant": false,
      "inputs": [
        {
          "name": "loanId",
          "type": "uint256"
        }
      ],
      "name": "lockLoan",
      "outputs": [],
      "payable": false,
      "stateMutability": "nonpayable",
      "type": "function",
      "signature": "0xa180f61b"
    },
    {
      "constant": true,
      "inputs": [
        {
          "name": "loanId",
          "type": "uint256"
        }
      ],
      "name": "getRepayValue",
      "outputs": [
        {
          "name": "",
          "type": "uint256"
        }
      ],
      "payable": false,
      "stateMutability": "view",
      "type": "function",
      "signature": "0x0b278f72"
    },
    {
      "constant": false,
      "inputs": [
        {
          "name": "loanId",
          "type": "uint256"
        }
      ],
      "name": "repayLoan",
      "outputs": [],
      "payable": true,
      "stateMutability": "payable",
      "type": "function",
      "signature": "0xab7b1c89"
    },
    {
      "constant": false,
      "inputs": [
        {
          "name": "proposeId",
          "type": "uint256"
        }
      ],
      "name": "acceptProposal",
      "outputs": [],
      "payable": false,
      "stateMutability": "nonpayable",
      "type": "function",
      "signature": "0x60c5cc3a"
    },
    {
      "constant": true,
      "inputs": [
        {
          "name": "lender",
          "type": "address"
        }
      ],
      "name": "totalProposalsBy",
      "outputs": [
        {
          "name": "",
          "type": "uint256"
        }
      ],
      "payable": false,
      "stateMutability": "view",
      "type": "function",
      "signature": "0xac51ba96"
    },
    {
      "constant": true,
      "inputs": [
        {
          "name": "lender",
          "type": "address"
        },
        {
          "name": "pos",
          "type": "uint256"
        }
      ],
      "name": "getProposalAtPosFor",
      "outputs": [
        {
          "name": "",
          "type": "address"
        },
        {
          "name": "",
          "type": "uint256"
        },
        {
          "name": "",
          "type": "uint8"
        },
        {
          "name": "",
          "type": "uint256"
        },
        {
          "name": "",
          "type": "uint256"
        },
        {
          "name": "",
          "type": "uint256"
        },
        {
          "name": "",
          "type": "uint256"
        },
        {
          "name": "",
          "type": "bytes32"
        }
      ],
      "payable": false,
      "stateMutability": "view",
      "type": "function",
      "signature": "0x277411d2"
    },
    {
      "constant": true,
      "inputs": [
        {
          "name": "borrower",
          "type": "address"
        }
      ],
      "name": "totalLoansBy",
      "outputs": [
        {
          "name": "",
          "type": "uint256"
        }
      ],
      "payable": false,
      "stateMutability": "view",
      "type": "function",
      "signature": "0xe24afbb6"
    },
    {
      "constant": true,
      "inputs": [
        {
          "name": "borrower",
          "type": "address"
        },
        {
          "name": "pos",
          "type": "uint256"
        }
      ],
      "name": "getLoanDetailsByAddressPosition",
      "outputs": [
        {
          "name": "",
          "type": "uint8"
        },
        {
          "name": "",
          "type": "uint256"
        },
        {
          "name": "",
          "type": "uint256"
        },
        {
          "name": "",
          "type": "uint256"
        },
        {
          "name": "",
          "type": "uint256"
        },
        {
          "name": "",
          "type": "bytes32"
        }
      ],
      "payable": false,
      "stateMutability": "view",
      "type": "function",
      "signature": "0x052065df"
    },
    {
      "constant": true,
      "inputs": [
        {
          "name": "borrower",
          "type": "address"
        }
      ],
      "name": "getLastLoanState",
      "outputs": [
        {
          "name": "",
          "type": "uint8"
        }
      ],
      "payable": false,
      "stateMutability": "view",
      "type": "function",
      "signature": "0xbad9e65a"
    },
    {
      "constant": true,
      "inputs": [
        {
          "name": "borrower",
          "type": "address"
        }
      ],
      "name": "getLastLoanDetails",
      "outputs": [
        {
          "name": "",
          "type": "uint8"
        },
        {
          "name": "",
          "type": "uint256"
        },
        {
          "name": "",
          "type": "uint256"
        },
        {
          "name": "",
          "type": "uint256"
        },
        {
          "name": "",
          "type": "uint256"
        }
      ],
      "payable": false,
      "stateMutability": "view",
      "type": "function",
      "signature": "0x8a190636"
    },
    {
      "constant": true,
      "inputs": [
        {
          "name": "loanId",
          "type": "uint256"
        },
        {
          "name": "numI",
          "type": "uint256"
        }
      ],
      "name": "getProposalDetailsByLoanIdPosition",
      "outputs": [
        {
          "name": "",
          "type": "uint8"
        },
        {
          "name": "",
          "type": "uint256"
        },
        {
          "name": "",
          "type": "uint256"
        },
        {
          "name": "",
          "type": "uint256"
        },
        {
          "name": "",
          "type": "address"
        }
      ],
      "payable": false,
      "stateMutability": "view",
      "type": "function",
      "signature": "0x63e84648"
    },
    {
      "constant": true,
      "inputs": [],
      "name": "numTotalLoans",
      "outputs": [
        {
          "name": "",
          "type": "uint256"
        }
      ],
      "payable": false,
      "stateMutability": "view",
      "type": "function",
      "signature": "0x8cad507d"
    }
  ],
  "bytecode": "0x608060405234801561001057600080fd5b50336000806101000a81548173ffffffffffffffffffffffffffffffffffffffff021916908373ffffffffffffffffffffffffffffffffffffffff16021790555061259c806100606000396000f3fe608060405260043610610128576000357c0100000000000000000000000000000000000000000000000000000000900463ffffffff168063052065df1461012d5780630b278f72146101cd5780631594a3131461021c5780631801f00f1461028b57806321d4f8db146102c3578063277411d21461032c57806360c5cc3a1461040657806363e84648146104415780637621710c146104f05780638a190636146105aa5780638cad507d146106395780638da5cb5b1461066457806398325656146106bb5780639ce9cc5614610720578063a180f61b1461075b578063ab7b1c8914610796578063ac51ba96146107c4578063bad9e65a14610829578063c6311e3f1461089c578063e24afbb614610941578063faa72d63146109a6578063fccd238c14610a15575b600080fd5b34801561013957600080fd5b506101866004803603604081101561015057600080fd5b81019080803573ffffffffffffffffffffffffffffffffffffffff16906020019092919080359060200190929190505050610a64565b6040518087600381111561019657fe5b60ff168152602001868152602001858152602001848152602001838152602001828152602001965050505050505060405180910390f35b3480156101d957600080fd5b50610206600480360360208110156101f057600080fd5b8101908080359060200190929190505050610b78565b6040518082815260200191505060405180910390f35b34801561022857600080fd5b506102756004803603604081101561023f57600080fd5b81019080803573ffffffffffffffffffffffffffffffffffffffff16906020019092919080359060200190929190505050610d42565b6040518082815260200191505060405180910390f35b6102c1600480360360408110156102a157600080fd5b810190808035906020019092919080359060200190929190505050610d72565b005b3480156102cf57600080fd5b50610312600480360360208110156102e657600080fd5b81019080803573ffffffffffffffffffffffffffffffffffffffff169060200190929190505050611049565b604051808215151515815260200191505060405180910390f35b34801561033857600080fd5b506103856004803603604081101561034f57600080fd5b81019080803573ffffffffffffffffffffffffffffffffffffffff169060200190929190803590602001909291905050506111dc565b604051808973ffffffffffffffffffffffffffffffffffffffff1673ffffffffffffffffffffffffffffffffffffffff1681526020018881526020018760028111156103cd57fe5b60ff1681526020018681526020018581526020018481526020018381526020018281526020019850505050505050505060405180910390f35b34801561041257600080fd5b5061043f6004803603602081101561042957600080fd5b8101908080359060200190929190505050611335565b005b34801561044d57600080fd5b506104846004803603604081101561046457600080fd5b81019080803590602001909291908035906020019092919050505061149e565b6040518086600281111561049457fe5b60ff1681526020018581526020018481526020018381526020018273ffffffffffffffffffffffffffffffffffffffff1673ffffffffffffffffffffffffffffffffffffffff1681526020019550505050505060405180910390f35b3480156104fc57600080fd5b506105296004803603602081101561051357600080fd5b8101908080359060200190929190505050611582565b604051808973ffffffffffffffffffffffffffffffffffffffff1673ffffffffffffffffffffffffffffffffffffffff16815260200188600381111561056b57fe5b60ff1681526020018781526020018681526020018581526020018481526020018381526020018281526020019850505050505050505060405180910390f35b3480156105b657600080fd5b506105f9600480360360208110156105cd57600080fd5b81019080803573ffffffffffffffffffffffffffffffffffffffff169060200190929190505050611606565b6040518086600381111561060957fe5b60ff1681526020018581526020018481526020018381526020018281526020019550505050505060405180910390f35b34801561064557600080fd5b5061064e611709565b6040518082815260200191505060405180910390f35b34801561067057600080fd5b50610679611716565b604051808273ffffffffffffffffffffffffffffffffffffffff1673ffffffffffffffffffffffffffffffffffffffff16815260200191505060405180910390f35b3480156106c757600080fd5b5061070a600480360360208110156106de57600080fd5b81019080803573ffffffffffffffffffffffffffffffffffffffff16906020019092919050505061173b565b6040518082815260200191505060405180910390f35b34801561072c57600080fd5b506107596004803603602081101561074357600080fd5b8101908080359060200190929190505050611865565b005b34801561076757600080fd5b506107946004803603602081101561077e57600080fd5b8101908080359060200190929190505050611bb1565b005b6107c2600480360360208110156107ac57600080fd5b8101908080359060200190929190505050611e60565b005b3480156107d057600080fd5b50610813600480360360208110156107e757600080fd5b81019080803573ffffffffffffffffffffffffffffffffffffffff169060200190929190505050612181565b6040518082815260200191505060405180910390f35b34801561083557600080fd5b506108786004803603602081101561084c57600080fd5b81019080803573ffffffffffffffffffffffffffffffffffffffff1690602001909291905050506121cd565b6040518082600381111561088857fe5b60ff16815260200191505060405180910390f35b3480156108a857600080fd5b506108d5600480360360208110156108bf57600080fd5b81019080803590602001909291905050506122b8565b604051808673ffffffffffffffffffffffffffffffffffffffff1673ffffffffffffffffffffffffffffffffffffffff16815260200185815260200184600281111561091d57fe5b60ff1681526020018381526020018281526020019550505050505060405180910390f35b34801561094d57600080fd5b506109906004803603602081101561096457600080fd5b81019080803573ffffffffffffffffffffffffffffffffffffffff16906020019092919050505061232a565b6040518082815260200191505060405180910390f35b3480156109b257600080fd5b506109ff600480360360408110156109c957600080fd5b81019080803573ffffffffffffffffffffffffffffffffffffffff16906020019092919080359060200190929190505050612376565b6040518082815260200191505060405180910390f35b348015610a2157600080fd5b50610a6260048036036060811015610a3857600080fd5b810190808035906020019092919080359060200190929190803590602001909291905050506123a6565b005b60008060008060008060006001600360008b73ffffffffffffffffffffffffffffffffffffffff1673ffffffffffffffffffffffffffffffffffffffff16815260200190815260200160002089815481101515610abd57fe5b9060005260206000200154815481101515610ad457fe5b906000526020600020906008020190508060000160149054906101000a900460ff16816001015482600201548360040154600360008e73ffffffffffffffffffffffffffffffffffffffff1673ffffffffffffffffffffffffffffffffffffffff1681526020019081526020016000208c815481101515610b5157fe5b90600052602060002001548560060154965096509650965096509650509295509295509295565b600060016003811115610b8757fe5b600183815481101515610b9657fe5b906000526020600020906008020160000160149054906101000a900460ff166003811115610bc057fe5b1415610d31576000600183815481101515610bd757fe5b9060005260206000209060080201600501549050600080905060008090505b600185815481101515610c0557fe5b906000526020600020906008020160030154811015610d26576000600186815481101515610c2f57fe5b9060005260206000209060080201600701600083815260200190815260200160002054905060016002811115610c6157fe5b600282815481101515610c7057fe5b906000526020600020906005020160020160009054906101000a900460ff166002811115610c9a57fe5b1415610d18576000600282815481101515610cb157fe5b90600052602060002090600502016004015490506000600283815481101515610cd657fe5b90600052602060002090600502016003015490506000429050600063bbf81e0088830384860202811515610d0657fe5b04905080870196508387019650505050505b508080600101915050610bf6565b508092505050610d3d565b67ffffffffffffffff90505b919050565b600360205281600052604060002081815481101515610d5d57fe5b90600052602060002001600091509150505481565b600073ffffffffffffffffffffffffffffffffffffffff16600183815481101515610d9957fe5b906000526020600020906008020160000160009054906101000a900473ffffffffffffffffffffffffffffffffffffffff1673ffffffffffffffffffffffffffffffffffffffff161480610e31575060006003811115610df557fe5b600183815481101515610e0457fe5b906000526020600020906008020160000160149054906101000a900460ff166003811115610e2e57fe5b14155b15610e3b57611045565b600260a0604051908101604052803373ffffffffffffffffffffffffffffffffffffffff16815260200184815260200160006002811115610e7857fe5b8152602001838152602001348152509080600181540180825580915050906001820390600052602060002090600502016000909192909190915060008201518160000160006101000a81548173ffffffffffffffffffffffffffffffffffffffff021916908373ffffffffffffffffffffffffffffffffffffffff1602179055506020820151816001015560408201518160020160006101000a81548160ff02191690836002811115610f2757fe5b02179055506060820151816003015560808201518160040155505050600460003373ffffffffffffffffffffffffffffffffffffffff1673ffffffffffffffffffffffffffffffffffffffff1681526020019081526020016000206001600280549050039080600181540180825580915050906001820390600052602060002001600090919290919091505550600182815481101515610fc357fe5b906000526020600020906008020160030160008154809291906001019190505550600160028054905003600183815481101515610ffc57fe5b906000526020600020906008020160070160006001808681548110151561101f57fe5b906000526020600020906008020160030154038152602001908152602001600020819055505b5050565b600080600360008473ffffffffffffffffffffffffffffffffffffffff1673ffffffffffffffffffffffffffffffffffffffff16815260200190815260200160002080549050905060008114156110a45760009150506111d7565b60006001600360008673ffffffffffffffffffffffffffffffffffffffff1673ffffffffffffffffffffffffffffffffffffffff168152602001908152602001600020600184038154811015156110f757fe5b906000526020600020015481548110151561110e57fe5b906000526020600020906008020190506000600381111561112b57fe5b600180840381548110151561113c57fe5b906000526020600020906008020160000160149054906101000a900460ff16600381111561116657fe5b1415611177576001925050506111d7565b6001600381111561118457fe5b600180840381548110151561119557fe5b906000526020600020906008020160000160149054906101000a900460ff1660038111156111bf57fe5b14156111d0576001925050506111d7565b6000925050505b919050565b60008060008060008060008060006002600460008d73ffffffffffffffffffffffffffffffffffffffff1673ffffffffffffffffffffffffffffffffffffffff1681526020019081526020016000208b81548110151561123857fe5b906000526020600020015481548110151561124f57fe5b906000526020600020906005020190508060000160009054906101000a900473ffffffffffffffffffffffffffffffffffffffff1681600101548260020160009054906101000a900460ff1683600301548460040154600186600101548154811015156112b857fe5b906000526020600020906008020160020154600187600101548154811015156112dd57fe5b9060005260206000209060080201600101546001886001015481548110151561130257fe5b90600052602060002090600802016006015487975098509850985098509850985098509850509295985092959890939650565b60006113403361173b565b905067ffffffffffffffff811415611358575061149b565b600060028381548110151561136957fe5b906000526020600020906005020190506000600281111561138657fe5b8160020160009054906101000a900460ff1660028111156113a357fe5b1415156113b157505061149b565b60006001838154811015156113c257fe5b90600052602060002090600802019050600060038111156113df57fe5b8160000160149054906101000a900460ff1660038111156113fc57fe5b14151561140b5750505061149b565b8060020154826004015482600401540111151561149757816004015460018481548110151561143657fe5b906000526020600020906008020160040160008282540192505081905550600160028581548110151561146557fe5b906000526020600020906005020160020160006101000a81548160ff0219169083600281111561149157fe5b02179055505b5050505b50565b60008060008060008060026001898154811015156114b857fe5b90600052602060002090600802016007016000898152602001908152602001600020548154811015156114e757fe5b906000526020600020906005020190508060020160009054906101000a900460ff168160030154826004015460018b81548110151561152257fe5b906000526020600020906008020160070160008b8152602001908152602001600020548460000160009054906101000a900473ffffffffffffffffffffffffffffffffffffffff1680905095509550955095509550509295509295909350565b60018181548110151561159157fe5b90600052602060002090600802016000915090508060000160009054906101000a900473ffffffffffffffffffffffffffffffffffffffff16908060000160149054906101000a900460ff16908060010154908060020154908060030154908060040154908060050154908060060154905088565b600080600080600080600360008873ffffffffffffffffffffffffffffffffffffffff1673ffffffffffffffffffffffffffffffffffffffff16815260200190815260200160002080549050905060006001600360008a73ffffffffffffffffffffffffffffffffffffffff1673ffffffffffffffffffffffffffffffffffffffff168152602001908152602001600020600184038154811015156116a757fe5b90600052602060002001548154811015156116be57fe5b906000526020600020906008020190508060000160149054906101000a900460ff16816001015482600201548360030154846004015496509650965096509650505091939590929450565b6000600180549050905090565b6000809054906101000a900473ffffffffffffffffffffffffffffffffffffffff1681565b600080600360008473ffffffffffffffffffffffffffffffffffffffff1673ffffffffffffffffffffffffffffffffffffffff168152602001908152602001600020805490509050600081141561179d5767ffffffffffffffff915050611860565b6000600360008573ffffffffffffffffffffffffffffffffffffffff1673ffffffffffffffffffffffffffffffffffffffff168152602001908152602001600020600183038154811015156117ee57fe5b906000526020600020015490506000600381111561180857fe5b60018281548110151561181757fe5b906000526020600020906008020160000160149054906101000a900460ff16600381111561184157fe5b14151561185a5767ffffffffffffffff92505050611860565b80925050505b919050565b6000600460003373ffffffffffffffffffffffffffffffffffffffff1673ffffffffffffffffffffffffffffffffffffffff168152602001908152602001600020828154811015156118b357fe5b90600052602060002001549050600060028111156118cd57fe5b6002828154811015156118dc57fe5b906000526020600020906005020160020160009054906101000a900460ff16600281111561190657fe5b1415156119135750611bae565b600060028281548110151561192457fe5b90600052602060002090600502016001015490506000600381111561194557fe5b60018281548110151561195457fe5b906000526020600020906008020160000160149054906101000a900460ff16600381111561197e57fe5b1415611a31576002808381548110151561199457fe5b906000526020600020906005020160020160006101000a81548160ff021916908360028111156119c057fe5b02179055503373ffffffffffffffffffffffffffffffffffffffff166108fc6002848154811015156119ee57fe5b9060005260206000209060050201600401549081150290604051600060405180830381858888f19350505050158015611a2b573d6000803e3d6000fd5b50611bab565b60016003811115611a3e57fe5b600182815481101515611a4d57fe5b906000526020600020906008020160000160149054906101000a900460ff166003811115611a7757fe5b1415611baa5742600182815481101515611a8d57fe5b9060005260206000209060080201600101541015611aac575050611bae565b6003600182815481101515611abd57fe5b906000526020600020906008020160000160146101000a81548160ff02191690836003811115611ae957fe5b021790555060008090505b600182815481101515611b0357fe5b906000526020600020906008020160030154811015611ba8576000600183815481101515611b2d57fe5b9060005260206000209060080201600701600083815260200190815260200160002054905060016002811115611b5f57fe5b600282815481101515611b6e57fe5b906000526020600020906005020160020160009054906101000a900460ff166002811115611b9857fe5b5050508080600101915050611af4565b505b5b50505b50565b60006003811115611bbe57fe5b600182815481101515611bcd57fe5b906000526020600020906008020160000160149054906101000a900460ff166003811115611bf757fe5b1415611e575760018082815481101515611c0d57fe5b906000526020600020906008020160000160146101000a81548160ff02191690836003811115611c3957fe5b021790555060008090505b600182815481101515611c5357fe5b906000526020600020906008020160030154811015611e51576000600183815481101515611c7d57fe5b9060005260206000209060080201600701600083815260200190815260200160002054905060016002811115611caf57fe5b600282815481101515611cbe57fe5b906000526020600020906005020160020160009054906101000a900460ff166002811115611ce857fe5b1415611d5a573373ffffffffffffffffffffffffffffffffffffffff166108fc600283815481101515611d1757fe5b9060005260206000209060050201600401549081150290604051600060405180830381858888f19350505050158015611d54573d6000803e3d6000fd5b50611e43565b60028082815481101515611d6a57fe5b906000526020600020906005020160020160006101000a81548160ff02191690836002811115611d9657fe5b0217905550600281815481101515611daa57fe5b906000526020600020906005020160000160009054906101000a900473ffffffffffffffffffffffffffffffffffffffff1673ffffffffffffffffffffffffffffffffffffffff166108fc600283815481101515611e0457fe5b9060005260206000209060050201600401549081150290604051600060405180830381858888f19350505050158015611e41573d6000803e3d6000fd5b505b508080600101915050611c44565b50611e5c565b611e5d565b5b50565b60004290506000611e7083610b78565b90506000600184815481101515611e8357fe5b90600052602060002090600802016005015490506000349050828110151561213257600083820390506002600187815481101515611ebd57fe5b906000526020600020906008020160000160146101000a81548160ff02191690836003811115611ee957fe5b021790555060008090505b600187815481101515611f0357fe5b9060005260206000209060080201600301548110156120e4576000600188815481101515611f2d57fe5b9060005260206000209060080201600701600083815260200190815260200160002054905060016002811115611f5f57fe5b600282815481101515611f6e57fe5b906000526020600020906005020160020160009054906101000a900460ff166002811115611f9857fe5b14156120d6576000600282815481101515611faf57fe5b90600052602060002090600502016004015490506000600283815481101515611fd457fe5b9060005260206000209060050201600301549050600063bbf81e00888b0383850202811515611fff57fe5b0490506000838201905060028581548110151561201857fe5b906000526020600020906005020160000160009054906101000a900473ffffffffffffffffffffffffffffffffffffffff1673ffffffffffffffffffffffffffffffffffffffff166108fc829081150290604051600060405180830381858888f1935050505015801561208f573d6000803e3d6000fd5b50600280868154811015156120a057fe5b906000526020600020906005020160020160006101000a81548160ff021916908360028111156120cc57fe5b0217905550505050505b508080600101915050611ef4565b503373ffffffffffffffffffffffffffffffffffffffff166108fc829081150290604051600060405180830381858888f1935050505015801561212b573d6000803e3d6000fd5b505061217a565b3373ffffffffffffffffffffffffffffffffffffffff166108fc829081150290604051600060405180830381858888f19350505050158015612178573d6000803e3d6000fd5b505b5050505050565b6000600460008373ffffffffffffffffffffffffffffffffffffffff1673ffffffffffffffffffffffffffffffffffffffff168152602001908152602001600020805490509050919050565b600080600360008473ffffffffffffffffffffffffffffffffffffffff1673ffffffffffffffffffffffffffffffffffffffff16815260200190815260200160002080549050905060008114156122285760029150506122b3565b6001600360008573ffffffffffffffffffffffffffffffffffffffff1673ffffffffffffffffffffffffffffffffffffffff1681526020019081526020016000206001830381548110151561227957fe5b906000526020600020015481548110151561229057fe5b906000526020600020906008020160000160149054906101000a900460ff169150505b919050565b6002818154811015156122c757fe5b90600052602060002090600502016000915090508060000160009054906101000a900473ffffffffffffffffffffffffffffffffffffffff16908060010154908060020160009054906101000a900460ff16908060030154908060040154905085565b6000600360008373ffffffffffffffffffffffffffffffffffffffff1673ffffffffffffffffffffffffffffffffffffffff168152602001908152602001600020805490509050919050565b60046020528160005260406000208181548110151561239157fe5b90600052602060002001600091509150505481565b6123af33611049565b156123b95761256b565b60004290506001610100604051908101604052803373ffffffffffffffffffffffffffffffffffffffff168152602001600060038111156123f657fe5b81526020018581526020018681526020016000815260200160008152602001838152602001848152509080600181540180825580915050906001820390600052602060002090600802016000909192909190915060008201518160000160006101000a81548173ffffffffffffffffffffffffffffffffffffffff021916908373ffffffffffffffffffffffffffffffffffffffff16021790555060208201518160000160146101000a81548160ff021916908360038111156124b557fe5b021790555060408201518160010155606082015181600201556080820151816003015560a0820151816004015560c0820151816005015560e08201518160060155505050600360003373ffffffffffffffffffffffffffffffffffffffff1673ffffffffffffffffffffffffffffffffffffffff16815260200190815260200160002060018080549050039080600181540180825580915050906001820390600052602060002001600090919290919091505550505b50505056fea165627a7a72305820c61f08044619d931ee80b49d0766efa87966d4c860543bacb18f495e5d4e46be0029",
  "source": "pragma solidity ^0.5.0;\ncontract CrowdBank {\n    \n    address public owner;\n    \n    enum ProposalState {\n        WAITING,\n        ACCEPTED,\n        REPAID\n    }\n\n    struct Proposal {\n        address payable lender;\n        uint loanId;\n        ProposalState state;\n        uint rate;\n        uint amount;\n    }\n    \n    enum LoanState {\n        ACCEPTING,\n        LOCKED,\n        SUCCESSFUL,\n        FAILED\n    }\n    \n    struct Loan {\n        address borrower;\n        LoanState state;\n        uint dueDate;\n        uint amount;\n        uint proposalCount;\n        uint collected;\n        uint startDate;\n        bytes32 mortgage;\n        mapping (uint=>uint) proposal;\n    }\n\n    Loan[] public loanList;\n    Proposal[] public proposalList;\n\n    mapping (address=>uint[]) public loanMap;\n    mapping (address=>uint[]) public lendMap;\n\n    constructor() public{\n        owner = msg.sender;\n    }\n\n     function hasActiveLoan(address borrower) public view returns(bool) {\n        uint validLoans = loanMap[borrower].length;\n        if(validLoans == 0) return false;\n        Loan storage obj = loanList[loanMap[borrower][validLoans-1]];\n        if(loanList[validLoans-1].state == LoanState.ACCEPTING) return true;\n        if(loanList[validLoans-1].state == LoanState.LOCKED) return true;\n        return false;\n    }\n\n     function newLoan(uint amount, uint dueDate, bytes32 mortgage) public {\n        if(hasActiveLoan(msg.sender)) return;\n        uint currentDate = block.timestamp;\n        loanList.push(Loan(msg.sender, LoanState.ACCEPTING, dueDate, amount, 0, 0, currentDate, mortgage));\n        loanMap[msg.sender].push(loanList.length-1);\n    }\n\n     function newProposal(uint loanId, uint rate) public payable {\n        if(loanList[loanId].borrower == address(0) || loanList[loanId].state != LoanState.ACCEPTING)\n            return;\n        proposalList.push(Proposal(msg.sender, loanId, ProposalState.WAITING, rate, msg.value));\n        lendMap[msg.sender].push(proposalList.length-1);\n        loanList[loanId].proposalCount++;\n        loanList[loanId].proposal[loanList[loanId].proposalCount-1] = proposalList.length-1;\n    }\n\n     function getActiveLoanId(address borrower) public view returns(uint) {\n        uint numLoans = loanMap[borrower].length;\n        if(numLoans == 0) return (2**64 - 1);\n        uint lastLoanId = loanMap[borrower][numLoans-1];\n        if(loanList[lastLoanId].state != LoanState.ACCEPTING) return (2**64 - 1);\n        return lastLoanId;\n    }\n\n     function revokeMyProposal(uint id) public {\n        uint proposeId = lendMap[msg.sender][id];\n        if(proposalList[proposeId].state != ProposalState.WAITING) return;\n        uint loanId = proposalList[proposeId].loanId;\n        if(loanList[loanId].state == LoanState.ACCEPTING) {\n            // Lender wishes to revoke his ETH when proposal is still WAITING\n            proposalList[proposeId].state = ProposalState.REPAID;\n            msg.sender.transfer(proposalList[proposeId].amount);\n        }\n        else if(loanList[loanId].state == LoanState.LOCKED) {\n            // The loan is locked/accepting and the due date passed : transfer the mortgage\n            if(loanList[loanId].dueDate < now) return;\n            loanList[loanId].state = LoanState.FAILED;\n            for(uint i = 0; i < loanList[loanId].proposalCount; i++) {\n                uint numI = loanList[loanId].proposal[i];\n                if(proposalList[numI].state == ProposalState.ACCEPTED) {\n                    // transfer mortgage \n                }\n            } \n        }\n    }\n\n     function lockLoan(uint loanId) public {\n        //contract will send money to msg.sender\n        //states of proposals would be finalized, not accepted proposals would be reimbursed\n        if(loanList[loanId].state == LoanState.ACCEPTING)\n        {\n          loanList[loanId].state = LoanState.LOCKED;\n          for(uint i = 0; i < loanList[loanId].proposalCount; i++)\n          {\n            uint numI = loanList[loanId].proposal[i];\n            if(proposalList[numI].state == ProposalState.ACCEPTED)\n            {\n              msg.sender.transfer(proposalList[numI].amount); //Send to borrower\n            }\n            else\n            {\n              proposalList[numI].state = ProposalState.REPAID;\n              proposalList[numI].lender.transfer(proposalList[numI].amount); //Send back to lender\n            }\n          }\n        }\n        else\n          return;\n    }\n    \n    //Amount to be Repaid\n     function getRepayValue(uint loanId) public view returns(uint) {\n        if(loanList[loanId].state == LoanState.LOCKED)\n        {\n          uint time = loanList[loanId].startDate;\n          uint finalamount = 0;\n          for(uint i = 0; i < loanList[loanId].proposalCount; i++)\n          {\n            uint numI = loanList[loanId].proposal[i];\n            if(proposalList[numI].state == ProposalState.ACCEPTED)\n            {\n              uint original = proposalList[numI].amount;\n              uint rate = proposalList[numI].rate;\n              uint now = block.timestamp;\n              uint interest = (original*rate*(now - time))/(365*24*60*60*100);\n              finalamount += interest;\n              finalamount += original;\n            }\n          }\n          return finalamount;\n        }\n        else\n          return (2**64 -1);\n    }\n\n     function repayLoan(uint loanId) public payable {\n      uint now = block.timestamp;\n      uint toBePaid = getRepayValue(loanId);\n      uint time = loanList[loanId].startDate;\n      uint paid = msg.value;\n      if(paid >= toBePaid)\n      {\n        uint remain = paid - toBePaid;\n        loanList[loanId].state = LoanState.SUCCESSFUL;\n        for(uint i = 0; i < loanList[loanId].proposalCount; i++)\n        {\n          uint numI = loanList[loanId].proposal[i];\n          if(proposalList[numI].state == ProposalState.ACCEPTED)\n          {\n            uint original = proposalList[numI].amount;\n            uint rate = proposalList[numI].rate;\n            uint interest = (original*rate*(now - time))/(365*24*60*60*100);\n            uint finalamount = interest + original;\n            proposalList[numI].lender.transfer(finalamount);\n            proposalList[numI].state = ProposalState.REPAID;\n          }\n        }\n        msg.sender.transfer(remain);\n      }\n      else\n      {\n        msg.sender.transfer(paid);\n      }\n    }\n\n     function acceptProposal(uint proposeId) public\n    {\n        uint loanId = getActiveLoanId(msg.sender); \n        if(loanId == (2**64 - 1)) return;\n        Proposal storage pObj = proposalList[proposeId];\n        if(pObj.state != ProposalState.WAITING) return;\n\n        Loan storage lObj = loanList[loanId];\n        if(lObj.state != LoanState.ACCEPTING) return;\n\n        if(lObj.collected + pObj.amount <= lObj.amount)\n        {\n          loanList[loanId].collected += pObj.amount;\n          proposalList[proposeId].state = ProposalState.ACCEPTED;\n        }\n    }\n\n     function totalProposalsBy(address lender) public view returns(uint) {\n        return lendMap[lender].length;\n    }\n\n     function getProposalAtPosFor(address lender, uint pos) public view returns(address, uint, ProposalState, uint, uint, uint, uint, bytes32) {\n        Proposal storage prop = proposalList[lendMap[lender][pos]];\n        return (prop.lender, prop.loanId, prop.state, prop.rate, prop.amount, loanList[prop.loanId].amount, loanList[prop.loanId].dueDate, loanList[prop.loanId].mortgage);\n    }\n\n// BORROWER ACTIONS AVAILABLE    \n\n     function totalLoansBy(address borrower) public view returns(uint) {\n        return loanMap[borrower].length;\n    }\n\n     function getLoanDetailsByAddressPosition(address borrower, uint pos) public view returns(LoanState, uint, uint, uint, uint,bytes32) {\n        Loan storage obj = loanList[loanMap[borrower][pos]];\n        return (obj.state, obj.dueDate, obj.amount, obj.collected, loanMap[borrower][pos], obj.mortgage);\n    }\n\n     function getLastLoanState(address borrower) public view returns(LoanState) {\n        uint loanLength = loanMap[borrower].length;\n        if(loanLength == 0)\n            return LoanState.SUCCESSFUL;\n        return loanList[loanMap[borrower][loanLength -1]].state;\n    }\n\n     function getLastLoanDetails(address borrower) public view returns(LoanState, uint, uint, uint, uint) {\n        uint loanLength = loanMap[borrower].length;\n        Loan storage obj = loanList[loanMap[borrower][loanLength -1]];\n        return (obj.state, obj.dueDate, obj.amount, obj.proposalCount, obj.collected);\n    }\n\n     function getProposalDetailsByLoanIdPosition(uint loanId, uint numI) public view returns(ProposalState, uint, uint, uint, address) {\n        Proposal storage obj = proposalList[loanList[loanId].proposal[numI]];\n        return (obj.state, obj.rate, obj.amount, loanList[loanId].proposal[numI],obj.lender);\n    }\n\n     function numTotalLoans() public view returns(uint) {\n        return loanList.length;\n    }\n    \n}\n",
  "sourcePath": "/home/koshik/projects/CrowdBank/contracts/CrowdBank.sol",
  "compiler": {
    "name": "solc",
    "version": "0.5.0+commit.1d4f565a.Emscripten.clang"
  },
  "schemaVersion": "3.0.6",
  "updatedAt": "2019-04-16T09:53:08.706Z",
  "devdoc": {
    "methods": {}
  },
  "userdoc": {
    "methods": {}
  }
}